{
  "contractName": "threeInARow",
  "abi": [
    {
      "inputs": [],
      "stateMutability": "nonpayable",
      "type": "constructor"
    },
    {
      "inputs": [],
      "name": "consecutiveWins",
      "outputs": [
        {
          "internalType": "uint256",
          "name": "",
          "type": "uint256"
        }
      ],
      "stateMutability": "view",
      "type": "function"
    },
    {
      "inputs": [
        {
          "internalType": "bool",
          "name": "_guess",
          "type": "bool"
        }
      ],
      "name": "flip",
      "outputs": [
        {
          "internalType": "bool",
          "name": "",
          "type": "bool"
        }
      ],
      "stateMutability": "nonpayable",
      "type": "function"
    }
  ],
  "bytecode": "0x60806040527f800000000000000000000000000000000000000000000000000000000000000060025534801561003457600080fd5b506000808190555061032d8061004b6000396000f3fe608060405234801561001057600080fd5b50600436106100365760003560e01c80631d263f671461003b578063e6f334d71461006b575b600080fd5b61005560048036038101906100509190610161565b610089565b604051610062919061019d565b60405180910390f35b61007361011e565b60405161008091906101d1565b60405180910390f35b600080600143610099919061021b565b4060001c905080600154036100ad57600080fd5b806001819055506000600254826100c4919061027e565b90506000600182146100d75760006100da565b60015b90508415158115150361010a576000808154809291906100f9906102af565b919050555060019350505050610119565b60008081905550600093505050505b919050565b60005481565b600080fd5b60008115159050919050565b61013e81610129565b811461014957600080fd5b50565b60008135905061015b81610135565b92915050565b60006020828403121561017757610176610124565b5b60006101858482850161014c565b91505092915050565b61019781610129565b82525050565b60006020820190506101b2600083018461018e565b92915050565b6000819050919050565b6101cb816101b8565b82525050565b60006020820190506101e660008301846101c2565b92915050565b7f4e487b7100000000000000000000000000000000000000000000000000000000600052601160045260246000fd5b6000610226826101b8565b9150610231836101b8565b9250828203905081811115610249576102486101ec565b5b92915050565b7f4e487b7100000000000000000000000000000000000000000000000000000000600052601260045260246000fd5b6000610289826101b8565b9150610294836101b8565b9250826102a4576102a361024f565b5b828204905092915050565b60006102ba826101b8565b91507fffffffffffffffffffffffffffffffffffffffffffffffffffffffffffffffff82036102ec576102eb6101ec565b5b60018201905091905056fea26469706673582212202eab1c05be406975f8bed34e92cd7fb6dd18faa46aaa34adeae1dc96134c344c64736f6c63430008130033",
  "immutableReferences": {},
  "source": "// SPDX-License-Identifier: MIT\npragma solidity >=0.4.22 <0.9.0;\n\n//Copy of CoinFlip contract (OpenZepellin/Ethernaut)\n\ncontract threeInARow {\n\n  uint256 public consecutiveWins;\n  uint256 lastHash;\n  uint256 FACTOR = 57896044618658097711785492504343953926634992332820282019728792003956564819968;\n\n  constructor() {\n    consecutiveWins = 0;\n  }\n\n  function flip(bool _guess) public returns (bool) {\n    uint256 blockValue = uint256(blockhash(block.number - 1));\n\n    if (lastHash == blockValue) {\n      revert();\n    }\n\n    lastHash = blockValue;\n    uint256 coinFlip = blockValue / FACTOR;\n    bool side = coinFlip == 1 ? true : false;\n\n    if (side == _guess) {\n      consecutiveWins++;\n      return true;\n    } else {\n      consecutiveWins = 0;\n      return false;\n    }\n  }\n}",
  "sourcePath": "c:\\Lorenzo\\GitHub\\crypto-kermesse\\crypto-kermesse\\contracts\\threeInARow.sol",
  "compiler": {
    "name": "solc",
    "version": "0.8.19+commit.7dd6d404.Emscripten.clang"
  },
  "schemaVersion": "3.4.13",
  "updatedAt": "2023-05-09T11:53:18.662Z",
  "devdoc": {
    "kind": "dev",
    "methods": {},
    "version": 1
  },
  "userdoc": {
    "kind": "user",
    "methods": {},
    "version": 1
  }
}